:100000006DC1000088C1000086C100000C94101171
:1000100082C100000C9401117EC100007CC100006F
:100020007AC1000078C1000076C1000074C10000F0
:1000300072C1000070C100000C94C3106CC10000BC
:100040006AC1000068C1000066C1000064C1000010
:1000500062C1000060C100005EC100005CC1000020
:100060005AC1000058C1000056C1000054C1000030
:10007000323032333035333130323135000105041E
:1000800014101115FF3FB2333526023679257A3424
:10009000F526F52E643289335E336332DC30F72E79
:1000A0007A31CE2E952F9E2C812CEF2B0A2BEB290B
:1000B0004A2AC2287D28C72627265D257424742352
:1000C0006622F521CB20A01FF81ECA1D0F1DE71BBD
:1000D000241B091AF9183B183A17441659154314EA
:1000E0003E13491263116310750F740E870D8D0C4A
:1000F000A70B9E0AAC09B708C207CE06DD05DD04D2
:10010000E503F402FF01FF01FF01FF01FF01FF0111
:10011000FF01FF01FF01FF01FF01FF01FF01FF01DF
:10012000FF01FF01FF01FF01FF01FF01FF01FF01CF
:10013000FF01FF01FF01FF01FF01FF01FF01FF01BF
:10014000FF01FF01FF01FF01FF01FF01FF01FF01AF
:10015000FF01FF01FF01FF01FF01FF01FF01FF019F
:10016000FF01FF01FF01FF01FF01FF01FF01FF018F
:10017000FF01FF01FF01FF01FF01FF01FF01FF017F
:10018000FF01FF01FF01FF01FF01FF01FF01FF016F
:10019000FF01FF01FF01FF01FF01FF01FF01FF015F
:1001A000FF01FF01FF01FF01FF01FF01FF01FF014F
:1001B0000200020002000300030004000400050026
:1001C00006000700080009000A000B000D000E00E1
:1001D0001000110013001500170019001C001E006C
:1001E00021002300260029002C002F0032003600B9
:1001F00039003C004000430047004A004E005100D7
:10020000540058005B005E006100630065006700F9
:1002100069006A006B006B006B006A006900660091
:1002200063005F005A0054004D0044003A002F0064
:1002300022002400260028002A002C002F00310074
:100240003400360039003C003F00420045004900C0
:100250004C005000530057005B00600064006800D1
:100260006D00720077007C00820087008D00930093
:100270009900A000A600AD00B400BB00C300CB00F5
:10028000D300DB00E400EC00F500FF0008011201E0
:100290001D01270132013D014901540161016D0138
:1002A0007A0187019501A301B101C001CF01DF01EE
:1002B000EF01FF01120226023A024F0264027A02A3
:1002C0009102A802C102DA02F3020E0329034503D8
:1002D00061037F039D03BD03DD03FE0311241FBEE5
:1002E000CFEFD4E0DEBFCDBF11E0A0E0B1E0E4EDA0
:1002F000F8E202C005900D92A235B107D9F722E0CD
:10030000A2E5B1E001C01D92AC30B207E1F70E9456
:100310001F110C94681474CEF89498ED9FBD83BFA0
:1003200078940895482F9B01E7EDF1E080E090E09C
:100330005081552331F00196339680319105C1F7F4
:100340000AC063E070E00E94CF13FC01E952FE4F47
:1003500040833283218308950F931F93CF93DF93BC
:10036000D091D701DD2351F10091D8011091D9012D
:10037000C091B401C150C7FD0DC0EC2FEE0FFF0BB3
:10038000EB54FE4F0190F081E02DB8018D2F0995BF
:100390008111F0CFE7EDF1E0838180838481958145
:1003A00092838183339682E0E430F807A9F71092B4
:1003B00004021092060210920502D2CFDF91CF9173
:1003C0001F910F910895BC0180910902ABCF10924B
:1003D0000902109208021092070281E080938601C0
:1003E00008950F931F93CF93C82F08EA17E0CC23EB
:1003F00049F082E091DFC8010197F1F780E08CDFDE
:10040000C150F5CFCF911F910F9108958BB182FB11
:10041000882780F991E089278093AD010895E091C4
:100420000701F09108013196FB70F460F093080128
:10043000E09307018091A9018B5A8093A901E4916F
:100440008091A9018E0F08950F931F93CF93DF938F
:1004500000D01F92CDB7DEB7209126013091270141
:100460004091280129833A834B83FE01319640E075
:1004700050E090E061E070E0B1919A01220F331FEB
:100480008C0102C0159507952A95E2F79801237013
:1004900061F02130D1F4A0B39B0101C0220FBA95C5
:1004A000EAF7322F30953A2318C0A0B39B0101C060
:1004B000220FBA95EAF720953A2F322330BB32B398
:1004C000322332BB31B323230EC0A0B39B0101C042
:1004D000220FBA95EAF73A2F322B30BB32B3322BC8
:1004E00032BB31B3232B21BB4F5F5F4F43305105EC
:1004F00019F60F900F900F90DF91CF911F910F91F0
:100500000895EF92FF921F93CF93DF93182F80915E
:10051000AB01811109C0112339F080912101181715
:1005200018F4EFDF82E05DDF1093AB011093AA01B6
:100530008091AC01811101C087DF111113C01092AD
:100540000B0210920A0210926D0010926C00109231
:100550006B0010926A0010926F0010926E008898E3
:1005600089982BC08FEF810F90E0880F991FFC01B5
:10057000E055FE4F2591349130930B0220930A02EF
:10058000FC01EC57FF4F2591349180916001A90146
:1005900040525109882339F060916E0070916F00CC
:1005A00046175707B8F3309369002093680081110C
:1005B00004C010926F0010926E00C0910A02D09198
:1005C0000B02E0906800F09069008091AB018150CF
:1005D0009091220191110BC090E06FEF70E00E94AA
:1005E000CF1366E970E00E940514262F1AC09F3FC2
:1005F00061F490E06FEF70E00E94CF1366E970E065
:100600000E940514262F20950CC0892F90E064E6E7
:1006100070E00E94CF1363E670E00E9419142FEF80
:10062000260FBE0180E090E030E040E050E00E9404
:10063000E01361587F4F8F4F9F4F2FEF30E040E026
:1006400050E00E942C14C901C21BD30BE216F30622
:1006500030F42E193F09C20FD31FC70109C0EC1691
:10066000FD0630F42E193F09CE01820F931FE701DA
:10067000D0936D00C0936C0090936B0080936A00E0
:10068000CD2B11F0889A01C08898892B11F0899A96
:1006900001C08998109360018091AB01823010F401
:1006A00082E005C08A3010F481E001C080E0DF9173
:1006B000CF911F91FF90EF902FCECF93DF9300D07B
:1006C00000D000D0CDB7DEB7909181012091C50157
:1006D0003091C6012151394009F492E0843019F477
:1006E0006093820121C06623F9F0823019F427E972
:1006F000261B622F26E0E9E2F1E0DE01119601906F
:100700000D922A95E1F7E82FF0E03197EE0FFF1FE9
:1007100021E030E02C0F3D1FE20FF31F0190F0812C
:10072000E02DE90FF11D608326960FB6F894DEBF29
:100730000FBECDBFDF91CF910895BF92CF92DF92D0
:10074000EF92FF920F931F93CF93DF93EC014091B1
:100750008101E0911F01EE2311F082E001C0842F9E
:1007600090E0DC01A75EBE4F2C9120931D01DC01BF
:10077000AA5EBE4F8C9180931C01F0E0ED5EFE4FAF
:100780003181622F70E0442349F0313039F49B010C
:10079000280F311DC9019595879538C0C617D70711
:1007A000A4F1682F70E06C177D0784F1411102C03D
:1007B0008C2F2CC0821B032F10E001501109E82E52
:1007C000F12CC701B8010E94191460937F0166954E
:1007D000E62FF0E0822FC12CD12CB12CB316B1F052
:1007E000C601B8010E940514822F860FCE0CDF1CB3
:1007F000AE01481B510957FF03C05195419551095E
:10080000E417F5071CF4B394E9CF822FDF91CF9161
:100810001F910F91FF90EF90DF90CF90BF900895C0
:100820000F931F93CF93DF939091CA012FEF290F5E
:100830002C3110F480E08CC0C82FC295CF70D82F17
:10084000DF708091AC01811103C0C33008F0C2E0B9
:10085000862FD730A8F400915A0110E00F5F1F4F88
:10086000DEDD65E00E94F9139801290F311DC901F1
:1008700066E070E00E94191480935A01ED2F41C088
:10088000D730A9F400915A0110E00F5F1F4FC7DD68
:1008900065E00E94F9139801290F311DC90166E036
:1008A00070E00E94191480935A01FC0134C0D830C2
:1008B000B1F49091AC01992311F06FE001C063E0B5
:1008C000862351F480915A0190E0019666E070E031
:1008D0000E94191480935A01E0915A0112C020918C
:1008E000AC01222381F09D31D0F080E0E82FF0E0D0
:1008F000EE5BFE4F2081921710F08E5FF7CF31979D
:10090000E081F0E008C0869563E00E94F913E92FCA
:10091000F0E0EE0FFF1FE358FF4FE49101C0E0E06D
:10092000C33071F48091590190E0019663E170E069
:100930000E94051480935901DC01A15DBE4FCC914A
:10094000CC2321F0C13019F0EE0F01C0E0E08E2F72
:10095000DF91CF911F910F9177CDCF93C091AB01D4
:1009600086E48C0F873908F080E0CBDD83E039DD49
:100970008C2FCF91C6CDCF93C091AB0180E0C1DD6C
:1009800083E02FDD8C2FCF91BCCD81E008956111E4
:10099000609324010895662389F0813061F4809189
:1009A000C8019091C701891B681B6093C70182E051
:1009B0008093250103C0635E60932301809123012E
:1009C000873418F086E480932301089560937A01B8
:1009D0000895E82FF0E0E45FFE4F608308950F93E1
:1009E0001F93CF93DF938091810180938701809142
:1009F000190180938801809116018093890180916B
:100A0000130180938A0180911A0180938B01809158
:100A1000170180938C018091140180938D01809146
:100A20001B0180938E018091180180938F0180912A
:100A300015018093900180911F0180939101809115
:100A40008201809392018091800180939301809133
:100A50001E0180939401809184018093950180917F
:100A60008301809396018091760180939701809114
:100A70002201809398018091770180939901809160
:100A8000210180939A0180910C0180939B018091B8
:100A90000A0180939C0180910B0180939D018091BC
:100AA000090180939E018091100180939F018091A4
:100AB00023018093A0018091C7018093A1018091BF
:100AC00024018093A201809112018093A30180915F
:100AD00011018093A40180917A018093A5018091F6
:100AE0000D018093A60180910E018093A701809152
:100AF0000F018093A80182E074DCF89407E811E00C
:100B0000C1E8D0E0F80161918F01CE010E94561436
:100B10002196C33AD105B1F765EA80E890E00E94DA
:100B200056147894DF91CF911F910F9108958130E1
:100B300019F4109284010895823019F460938301AE
:100B40000895833019F4609380010895843011F47E
:100B500060931E010895813069F4611101C080E045
:100B600080937701611102C08FE701C081E080931B
:100B700022010895823011F4609321010895CF93EA
:100B8000C0911F01C1114AC0883039F410927E0112
:100B900010927C0110927B0142C0813B59F48091FC
:100BA0007E0181508330D0F583E080937E01809375
:100BB0007D0134C0853BB1F4CB016EE370E00E944F
:100BC0000514892B61F580917E018A3F40F58B5F8A
:100BD00080937E0180937D0110927C0110927B01B5
:100BE000BCDE1DC08130D1F480917B0190917C01ED
:100BF000019688382EE0920728F490937C01809328
:100C00007B010DC010927C0110927B0180917E01CE
:100C1000882329F0815080937E0101C0C1E08C2F90
:100C2000CF910895CF93833B09F052C08091770113
:100C3000882381F0672B09F065C0809122018E3FE7
:100C400019F081E0809322018091220180958093A8
:100C5000220153C0672B29F481E080935801109240
:100C6000570180915801882309F44DC090910501E6
:100C700080912201191624F48E3F48F48F5F05C03D
:100C8000992329F0823018F0815080932201C0917D
:100C9000570190912201C03449F481E480935701B7
:100CA00081E089278093220166DE0DC08091560184
:100CB000891309C0C11102C05EDE02C0CF3F19F026
:100CC000CF5FC0935701809122018093560115C0D8
:100CD000833EC1F410925801809105018195809363
:100CE000050180912201823010F481E003C08E3F23
:100CF00018F08FEF8093050172DE8091AB0101DC6B
:100D000080E001C081E0CF910895FF920F931F937F
:100D1000CF93DF938C01EB01F42E8091C50190916C
:100D2000C601892B31F0E091C501F091C60189E03F
:100D300009951093C6010093C501012B39F0E0918C
:100D4000C501F091C601BE018F2D099581E0809308
:100D50008601DF91CF911F910F91FF900895CF935E
:100D6000DF93E091B401EE2359F0E150E093B40138
:100D7000F0E0EE0FFF1FEB54FE4FC081D18102C0A7
:100D8000C0E0D0E0E091B401EE2341F0F0E0EE0FDE
:100D9000FF1FED54FE4F8081918102C080E090E002
:100DA0004AE060E070E0B1DFCE01DF91CF910895BD
:100DB000883029F41092750110925B0115C08130C2
:100DC000F9F490915B01911107C06032710568F1EF
:100DD00080935B01FCDA29C0913081F46B3B710593
:100DE00028F082E080935B0180E01EC061157105F0
:100DF000E1F06270862F880F8E5E16C0B0DF15C0DE
:100E0000813811F0813E89F491E090935B01813E3D
:100E100021F480917501865F03C0809175018F5F19
:100E200080937501D4DA8BE46CDB80E008959C013B
:100E30009091B401983088F4E92FF0E0EE0FFF1F95
:100E4000EB54FE4F318320839F5F9093B40148E0C1
:100E5000C9015BDF8091B40108958FEF08950F936E
:100E60001F93CF93DF93EC018B0179DFB801CE01A3
:100E7000DF91CF911F910F91DACF813C29F460E08F
:100E800070E082EB97E006C0823C39F460E070E0ED
:100E900088E797E0E4DF80E0089581E00895813CF1
:100EA00029F460E070E082EB97E006C0823C31F408
:100EB00060E070E08DE397E0D2DF16C0813B49F43B
:100EC000CB016EE370E00E940514892B69F445DDC7
:100ED0000BC0813E59F4CB016EE370E00E94051413
:100EE0006F5F609310017BDD80E0089581E00895DD
:100EF000CF93C0911F01C11117C0813C29F460E05C
:100F000070E082EB97E006C0823C31F460E070E074
:100F100088E997E0A4DF09C0873B31F460E070E026
:100F20008DE199E084DF01C0C1E08C2FCF9108955D
:100F3000813C29F460E070E082EB97E006C0823CDF
:100F400031F460E070E08FE497E089DF07C0873B11
:100F500039F460E070E081E299E069DF80E00895B3
:100F600081E008950F931F93CF938B01883079F41C
:100F700080E0C7DA60E08091120152DC10927E01BD
:100F8000012B19F481E08093AC01C0E0FEC08130F8
:100F900049F469317105C8F38093AC018091120165
:100FA0003FDCF3CF833029F520918401222381F0A7
:100FB0008091830190E062EC71E00E94CF130817EA
:100FC000190730F02093200180917601809322014F
:100FD000602F8091120124DC80917A018823A9F28C
:100FE00090E062EC71E00E94CF138017910768F6E1
:100FF0004EC0813BC1F481E08093220181E090E00A
:101000009CDB7FDAC0918001C111BFCF809181014B
:10101000811104C00831110508F4B7CF61E070E018
:101020008BEB9EE074C0813E11F481E010C0813CE6
:1010300011F481E003C0823C39F48EEF80932201E9
:101040006091200170E007C0823E49F48EEF8093EA
:10105000220161E070E08BEB9EE001DF96CF8339E7
:1010600019F480E04EDA91CF833C29F460E070E01F
:1010700088E797E0F2CF833B39F480E042DA60E022
:1010800070E089E69CE0E9CF843C31F466DC60E006
:1010900070E08DE299E0E1CF8D3B41F4F89488ED6A
:1010A0008FBD88E880BF7894A895FFCF8F3C29F446
:1010B00060E070E085EC94E0D0CFC0911F018A3BE6
:1010C00071F4672B61F4CC2329F047DC10921F01E7
:1010D00086DC5BCF60E070E081E199E053C0C11134
:1010E00053C08A3C29F439DC81E080931F0140C061
:1010F000853C31F432DC60E070E08AEF9DE007C0AF
:10110000863C39F42ADC60E070E083E49EE0A7DEF0
:101110003CC0873C91F490911201892F82958F7089
:101120008F5F83708295807F9F70892B80931201DF
:1011300060E076DB54DC11DC28C0873BB9F4C801E1
:101140008F739927892B69F490911201892F8F70E1
:101150008F5F292F207F6BE00E94F913922B9093D1
:101160001201602F809112015BDB0FC0873E11F4EA
:1011700036DC0BC0893B41F4012B31F460E070E0B8
:1011800089E199E054DE01C0C1E08C2FCF911F911D
:101190000F910895883061F410925C0180E0B1D91C
:1011A0008091AD01811137C081E080935C0123C043
:1011B000982F907F903BB9F420915C01421780F00A
:1011C000CB016DE570E00E940514029739F42F5FA2
:1011D00020935C014217F8F088E303C082E101C06C
:1011E00080E08FD918C0903E61F480915C01882323
:1011F00089F0481778F060E070E088ED96E017DE3F
:101200000AC08A3041F46091750180915C01F90156
:101210000995E5DBA4DD80E008952DE533E043E0AA
:10122000B9CF2DE533E044E0B5CF27E935E044E020
:10123000B1CF2BEA35E042E0ADCF27EC34E041E01E
:10124000A9CF2BEC34E042E0A5CF26EE34E041E01C
:10125000A1CF29EE34E043E09DCF0F931F93CF93AE
:10126000DF93D82F8B01873B19F480E04AD95CC00B
:1012700080798039B1F42091190190911A018D2F54
:101280008F70823041F480918401811108C0822FD7
:10129000291728F403C0822F921708F4892F31D917
:1012A0000BC0803811F480E02CD9D83029F460E0EC
:1012B00080911101B5DA38C0D13039F40931110506
:1012C00008F46FC0D093AC0102C0D33029F4602F72
:1012D00080911101A5DA65C0D33C31F43EDB60E0BA
:1012E00070E082EB97E01EC0D43C71F4C0918401A1
:1012F000CC2319F06C2F70E013C06091200170E0D6
:101300008BEB9EE0ACDD50C0D43B31F434DB10926B
:10131000090261E070E004C0D53C31F466E970E098
:101320008BEB9EE09CDD3DC0C0911F01C1113BC015
:10133000DA3B31F460E070E085E299E078DD34C0BA
:10134000D73C91F490911101892F82958F708F5F16
:1013500083708295807F9F70892B8093110160E05C
:101360005FDA3DDBFADA20C0D73BB9F4C8018F73EE
:101370009927892B69F490911101892F8F708F5FC4
:10138000292F207F6BE00E94F913922B909311017B
:10139000602F8091110144DA07C0D73E21F41FDB92
:1013A00003C0C0E001C0C1E08C2FDF91CF911F913D
:1013B0000F91089586E884B91092D4011092D50156
:1013C00083B1886483B90895F5DFE1E6F0E08081B8
:1013D00082608083139A87EE83B908951092D601B4
:1013E00020B191B13091A9012295269526952370BF
:1013F000892F90E0880F991F880F991F820F911DE8
:10140000830F8093A9018091CB01882309F409C13E
:101410001092CB018091D4019091AC01992319F0E5
:101420001F981092D401811140C08091250188231A
:1014300049F08091D0019091D1019093CD0180939A
:10144000CC0104C08091CC019091CD014096807E6A
:1014500061EC72E00E9405148091240190E00797EE
:10146000680F791F769567956093CA018091740122
:10147000882311F0815008C06D3140F460E070E0C5
:1014800084E00E94920185E0809374018091AC0118
:101490008111BEC08EE884B981E08093D40110929E
:1014A000D50183B1886483B9B3C0813009F0B0C07D
:1014B00080912501811143C08091CE019091CF018F
:1014C000409645E0969587954A95E1F76091C7016A
:1014D000AC0156954795062E000C770B9B012E50BC
:1014E0003140240F351F3093C9012093C80120914A
:1014F0006301E22FF0E0EE0FFF1FEC59FE4F408139
:101500005181DC01A41BB50BAD01918380832F5F5A
:101510002770209363019D01220F331F220F331F79
:10152000820F931F2091230130E0261B370B225F8F
:101530003E4F220F331F821B930B23E01CC0809170
:10154000D2019091D3019093CF018093CE01409628
:1015500035E0969587953A95E1F7E4E6F1E08193D9
:101560009193B1E0E437FB07D1F7A6CF009709F0DC
:101570000196215029F018161906C4F70197F9CFE2
:1015800018161906E4F457FD39C0209162011216AD
:101590000CF1880F991FBC016350710977FF02C0DD
:1015A0006F5F7F4F759567951616170614F061E00B
:1015B00070E088E1861B8093620185E026C08C3F45
:1015C0002FEF9207DCF457FF19C02091620127FF2B
:1015D00005C02450281B2093620119C024EE281B4B
:1015E000209362012091CA012F3188F06CEF7FEFC8
:1015F000681B790B7595679586E007C08091CA01D5
:101600008E3128F060E070E087E00E949201D2DE27
:1016100080912501882329F08091250181508093B4
:1016200025010895843029F58091C5019091C60166
:101630002CE08936920729F469E170E08BEB9EE09B
:1016400016C08B5B9E4079F49091AB01923058F0BC
:10165000892F869596959695890F809385010E948E
:10166000810280E0089560E070E082EB97E0F7DBB4
:10167000F8CF81E008950F931F93CF931092AF019D
:1016800080910702909108029C012F5F3F4F8827AD
:101690009078822B932B9093080280930702C0913D
:1016A000AD010E940602C81731F11092AC0180937F
:1016B000AD0190910902882359F0892F80699F70AC
:1016C0009F3009F08F5F8093090280E090E00DC0A9
:1016D000892F8F7E95FD02C0806801C0806C809349
:1016E000090280910702909108020E94E301109282
:1016F00008021092070200910702109108028091DF
:10170000AC01882379F0B80183E00E9492010E9425
:10171000AC010F731127012B09F046C01092610133
:1017200053DE32C0C09109028C2F807F803B19F4B8
:1017300060E070E001C0B80181E00E949201C4FF46
:1017400013C0C5FF02C0C8010CC008311105E0F08C
:101750001092080210920702C062C093090280E052
:1017600090E00E94E30110C0CC2371F0C5FD0AC0D7
:101770000231110548F0C064C093090280E090E096
:101780000E94E3010E94E70180916101811106C07E
:1017900083B1886483B981E08093CB01809161013A
:1017A0008F5F8F7180936101CF911F910F91089589
:1017B0008091D601811112DE8091AF0181115BCF42
:1017C0000895EF92FF920F931F93CF93DF93EC0155
:1017D00008E017E082ECE82EFF24F3942097D9F07C
:1017E00080918601811119C08091AB01823028F46B
:1017F00082E00E948C01C70104C080E00E948C013D
:10180000C8010197F1F780E00E948C01D1DF0E94AE
:10181000AC012197E3CF81E001C080E0DF91CF915F
:101820001F910F91FF90EF900895CF93C82F8823B9
:1018300091F086E40E94810286EA90E0C2DF80E0B7
:101840000E9481028AEF90E0BCDFC15091F78AE9E3
:1018500092E0CF91B6CF86E40E94810288E090E0CA
:10186000B0DF80E00E9481028AEF90E0AADFEFCF34
:10187000CF93DF9364E6BDD7282F892F6AE0B9D7CD
:10188000EC01222341F0822FD0DF8C2FCEDF8D2F71
:10189000DF91CF91CACFC111F8CFF9CFCF93DF93AA
:1018A000D82FC3E0809120010E94810288EC90E053
:1018B00088DFDD2319F080E991E083DF80E00E947A
:1018C000810288EC90E07DDFC15061F7DF91CF911C
:1018D0000895DF92EF92FF920F931F93CF93DF93C0
:1018E000D82F8B01C0910C0181E080937901C33026
:1018F00009F0DDC0F0907E018D2F41D9FF2051F01D
:1019000080917E01811106C060E070E082EB97E07B
:10191000A6DACDC0D83021F481E080930301C9C09C
:10192000D23C19F410927E01DAC0D13BC1F49091FF
:101930000201012B49F4963610F08FEF03C092306C
:1019400018F481E08093030180910301890F11F461
:1019500081E02FC1873608F42CC186E62AC1D13E2A
:1019600031F480910301819580930301F7C0D23B4C
:1019700061F481E08093030180910201823008F4D8
:10198000F5C0815080930201F1C0D13009F0ABC0A5
:101990000932110511F4D0930301D09055018D2D1A
:1019A000880FD7FC809590E069E070E0F8D6292F89
:1019B000E09054018E2D880FE7FC8095D0910101B5
:1019C0006D2F70E090E0EBD6290FF09053018F2D32
:1019D000880FF7FC8095C09100016C2F70E090E0BB
:1019E000DED6920F6091020170E0690F711D809147
:1019F0007E01813091F480917B0190917C0125E002
:101A0000969587952A95E1F724E730E0A901481BD0
:101A1000590BCA01C4D6B901F8D6862F0E9481029B
:101A200000FD06C00E940F028170D80ED0925501B1
:101A300080915201E80EE09254010E940F0265E28B
:101A4000D8D6F90EF09253010E940F028F7331F431
:101A50000E940F026DE0CDD690935201DD2339F044
:101A60000E940F028F7319F4D150D09301010E948C
:101A70000F02811108C00E940F026EE0BAD6909347
:101A8000010110925401C33038F00E940F028F718F
:101A900019F4C150C09300010E940F028F7709F022
:101AA0008CC00E940F0287708093000186C0D830DE
:101AB00061F484E080930C018EEF809322010E94F8
:101AC000EF0481E08093040176C0D13C31F460E002
:101AD00070E082EB97E0C3D96EC0D23C31F48C2F1A
:101AE00090E0019607C0D13C91F3D43C49F48C2F8F
:101AF00090E0049665E070E09CD680930C0149C0AC
:101B0000D13B51F5C23090F400FD55C0EC2FF0E010
:101B1000E65FFE4F808190910401891B883020F0A0
:101B20008F3F99F58EEF31C088E02FC0C43009F0A7
:101B300042C09091090180910401890F823010F414
:101B400082E003C08D3308F08CE38093090180911B
:101B500009010E9481022FC0D13E31F4809104011D
:101B600081958093040115C0D23B89F481E0809374
:101B70000401C23070F500FD1EC0EC2FF0E0E65FFE
:101B8000FE4F80818F3FB9F08F5F808314C0D23EBB
:101B900019F40E94EF040FC0D53C39F460E070E006
:101BA0008AEF9DE05CD980E0D4CFD13031F081E084
:101BB00019C08093020180E015C00932110519F4A3
:101BC00081E0809304018091A901080F0093A9018D
:101BD000F2CFC43081F780910901833008F4B7CF88
:101BE0008150B3CFDF91CF911F910F91FF90EF9074
:101BF000DF9008950F931F93CF93DF93D82F8B011E
:101C0000883031F480917901882311F088E061DE19
:101C10008D2F8079803961F481E080937801C091C3
:101C20007901C1110CC0809120010E94810225C060
:101C3000803839F41092780180E00E948102C0E07F
:101C40001CC0D130C9F4C0917801CC2359F08091E7
:101C500079018823A1F3B80181E0DF91CF911F9131
:101C60000F9137CE0733114050F3D093AC0160E0B1
:101C700080E00E94100401C0C1E08C2FDF91CF9161
:101C80001F910F910895FF920F931F93CF93DF93AE
:101C9000D82F8B01F09020018079803931F5ED2F1C
:101CA000EF70E43020F010927801C0E02FC091E096
:101CB00090937801F0E0E45FFE4F80812FEF280FD2
:101CC000263928F480932001109279010CC090935A
:101CD00079018739B8F090E08759910965E070E0A3
:101CE00094D580930C01C0E008C0803829F410928C
:101CF000780180E00E948102C1E080917801882310
:101D000029F001C0C0E0B8018D2F74DFF0922001EE
:101D1000D83021F4B80188E0A0DA26C0D13039F4F7
:101D20008091780181111EC0B80181E004C0D330D8
:101D300041F4B80183E0DF91CF911F910F91FF90A3
:101D40008CCAD63C41F40E94AD0460E070E082EBA6
:101D500097E085D807C0D73B39F460E070E089E2AE
:101D600099E065D880E001C08C2FDF91CF911F9161
:101D70000F91FF900895AF92BF92CF92DF92EF92B2
:101D8000FF920F931F93CF93DF93182FEB01D09007
:101D90001D01F0901C01B0908101BB2019F0C09092
:101DA0007F0102C0CC24C39480911E0100911F01C9
:101DB000011180918201882349F0813021F08091C6
:101DC00020018F1518F0A6E9EA2E01C0EF2CA09093
:101DD0007E01BE01812F0E94BF0560917E016623B6
:101DE00039F0A1100CC08091AB0180935F0107C056
:101DF000AA2029F060E070E082EB97E043C0812FD9
:101E00008D7F8830F9F4109279011A3019F4C0915D
:101E10002001D0E08D2D90E08C179D0738F48F2D98
:101E200090E0C817D90710F4C0932001CE010E949A
:101E30009D03809385010E94810281E080930601C9
:101E400000E095C1113CB1F2123C99F48091AB01D4
:101E50008E1520F4E09285018E2D04C08091200122
:101E6000809385010E9481028091AB0180935F0184
:101E7000E7CF143C51F480E00E94810260E070E002
:101E80008DE299E00E942F07DBCF8FE4810F823033
:101E900008F056C0BB2039F0CE0168E170E0B5D43F
:101EA000892B31F0CDCF6091130170E0CE01F7CFD7
:101EB0002091AB01209761F4123B11F48FEF05C024
:101EC0002F15E0F7D21608F181E0809306011DC0BE
:101ED000E0911301F0E0CF0166E371E060D48C176C
:101EE0009D0710F42F1550F7CF016CE672E057D420
:101EF0008C179D0750F4D21640F00E94AD0460E0AC
:101F000070E08DE299E00E942F07D091AB018091A3
:101F100006016C2D70E0082E000C990B40D48D0F3B
:101F2000911D0E949D03C82F80932001D81721F096
:101F3000F81202C00E94BB04C09385018C2F92CF7F
:101F40008FE1810F823020F480910601819576CF58
:101F5000113009F083C0A99711F41093060166238C
:101F600091F080915F0170E06150710990E017D4A9
:101F700060917D0170E05DD4611101C061E060930A
:101F8000AA0160938501C091AA018091AB012C2F19
:101F900030E0281B310960915D0170915E016F5F37
:101FA0007F4F70935E0160935D012115310509F447
:101FB00047CF37FF05C0833830F040E450E005C01C
:101FC00040E052E002C040E051E05695479537FFAF
:101FD00002C02F5F3F4F3595279521153105A9F791
:101FE0004617570708F02CCFC81710F4815005C0CA
:101FF0008C1710F48F5F01C08C2FEFEFE80FF0E02B
:10200000EE0FFF1F9F0120553E4FF901659174911E
:1020100040910A0250910B024617570718F44F5F80
:102020005F4F05C06417750730F441505109509354
:102030000B0240930A02F9014591549120910A0242
:1020400030910B024217530721F40E948102C09382
:10205000AA0110925E0110925D01F2CE1530A9F432
:102060008091AB01823408F4EBCE90E08C1B9D0B89
:10207000282F813491052CF08739910518F026E935
:1020800001C021E42093AA01DBCE1630B1F4909177
:10209000AB0180918501981708F0D2CEC90FD11DF0
:1020A00090E08C179D0734F0C134D10524F4C1E4CD
:1020B000D0E001C0EC018C2F0EC0173079F4909164
:1020C000AA018091AB01891710F48F5F04C09817A3
:1020D00008F0B6CE81508093AA01B2CE011146C05D
:1020E000133CC9F481E0B11080E0809381010E942B
:1020F000EF040E94BB048091AB0190E00E949D031D
:1021000080932001809385010E9481028091AB0120
:1021100080935F012CC0153C51F480E00E94810245
:1021200060E070E08AEF9DE00E942F0720C0173B1F
:1021300029F460E070E08DE099E015C01A3C69F484
:102140008091AB018093840180912201809376017C
:102150000E94EF040E94AD040AC01A3B39F460E00B
:1021600070E085E199E00E94170701C001E0802F2F
:10217000DF91CF911F910F91FF90EF90DF90CF9063
:10218000BF90AF9008951F920F920FB60F92112437
:102190002F933F938F939F93AF93BF93EF93FF93AF
:1021A0008091D5018823E9F0E091D40120B131B1CB
:1021B000F0E0EE0FFF1FDF01A053BE4F2D933C93C5
:1021C000E453FE4F808191818217930708F40196B2
:1021D0002817390708F401979183808381E0809361
:1021E000D60181E08093D501FF91EF91BF91AF912E
:1021F0009F918F913F912F910F900FBE0F901F9045
:1022000018951F920F920FB60F9211248F9381E0B1
:102210008093AF018F910F900FBE0F901F90189574
:102220001F920F920FB60F9211248F9381E080932B
:10223000AE018F910F900FBE0F901F901895F894DC
:1022400085B7877F85BF88ED90E00FB6F894A89595
:102250008FBD90B7977F90BF0FBE81E088B998E09F
:102260009CB99FE790BB92EA9093720091E19093A2
:10227000710091E89BBB8ABB8FEF91E0909369005E
:102280008093680084E08EB988BD8CB780618CBF74
:10229000A89580E480BF98D8789481E00E94F101ED
:1022A00060E070E082E19BE00E94170710928601D7
:1022B0000E94AD040E94060281110BC082E00E94C0
:1022C000F101F89480E890E0E9D2853A89F17894B8
:1022D000C5C0C0E08C2F0E94810283E190E071DADA
:1022E0008C2F86950E94810283E190E06ADA0E9439
:1022F0000602882399F0CF5FC03461F765E181E081
:102300000E94CB040E94EF04C6E98C2F0E94810238
:1023100084E090E056DAC150C1F7D0CFCC2371F2FF
:102320008C2F0E9481028DE090E04BDAC150F6CFF5
:1023300007E811E0C1E8D0E0CE01B0D2F801819306
:102340008F012196C33AD105B9F77894809187011E
:102350008093810180918801809319018091890186
:102360008093160180918A018093130180918B01E3
:1023700080931A0180918C018093170180918D01C7
:102380008093140180918E0180931B0180918F01B5
:1023900080931801809190018093150180919101A3
:1023A00080931F018091920180938201809193011B
:1023B000809380018091940180931E01809195010A
:1023C000809384018091960180938301809197018D
:1023D00080937601809198018093220180919901E8
:1023E0008093770180919A018093210180919B01D4
:1023F00080930C0180919C0180930A0180919D0142
:1024000080930B0180919E018093090180919F012F
:10241000809310018091A001809323018091A101FC
:102420008093C7018091A201809324018091A30130
:10243000809312018091A401809311018091A501E4
:1024400080937A018091A60180930D018091A7016C
:1024500080930E018091A80180930F0180918401E7
:1024600081118093200160E070E082E196E00E949B
:10247000170761E070E082EB97E00E94170743E4E2
:10248000442E52E0552E60E4862E9924939477E0F2
:10249000772ECC24C394D12CF5E06F2EA2EBAA2E7C
:1024A000A7E0BA2E0E94AC018091B2019091B301D5
:1024B000009751F06091B0017091B1010E942F0717
:1024C0001092B3011092B2018091AC01882309F4FB
:1024D00042C080E00E948102A89540BE1F980E94E1
:1024E00006028111FCCF0E94E7018CB780618CBF8E
:1024F0001092D6011092AF011092AE018091AC0102
:10250000882301F186B78F79806486BF86B78061A2
:1025100086BF889586B78F7E86BF8091AE01811178
:102520001092AC018091D601882331F09092250160
:102530009092CB010E94EE098091AF018823F1F2C5
:102540009AD8DCCF509225018CB78F7E8CBF0E9429
:10255000E409A89580BE2CD9109286018091C5010E
:102560009091C601F4E0853C9F0779F4C0E7D0E084
:10257000FE018491805359D98CE291E022D92196B1
:10258000F0E0CC37DF07A1F7C4C02CE08936920712
:1025900099F03DE08A3F930729F0EEE083349E07EF
:1025A00009F0ACC020917901213009F0A7C0209139
:1025B0007801222309F4A2C0C0910C01C230E1F0DD
:1025C00020F0C43009F47DC06DCFEC2FF0E0E65F61
:1025D000FE4FD08186E90E948102C11103C082E0D2
:1025E00090E003C08D2F869590E0EBD880E00E94AC
:1025F00081028D2F90E0C6C00E940F028F73E82EDB
:10260000F12C0E940F02672DF4D0E60102C0CC0F1E
:10261000DD1F9A95E2F70E940F02662DEAD096011F
:1026200002C0220F331F9A95E2F7C20FD31F0E94F8
:102630000F0290E0BE01FDD0C80FD91FC739D105E8
:1026400014F0C6E9D0E08C2F0E948102C701B9D8EE
:102650008E0133E0159507953A95E1F7011101C018
:1026600001E010E0C701ADD8C01BD10BD7FF02C0FD
:10267000C0E0D0E08C2F0E9481020E940F02837084
:1026800039F4C7019ED8CE01959587950E948102A5
:10269000C230D1053CF70E940F026DE0AAD0E601DE
:1026A00002C0CC0FDD1F9A95E2F70E940F0290E066
:1026B000BE01ABD0C80FD91F80E00E948102CE01BD
:1026C00061C0C0910901CC0FC73908F0C6E9D4E058
:1026D0008C2F0E94810285E090E073D880910901DF
:1026E0000E94810281E490E06CD8D15089F780ED9E
:1026F00092E067D880E00E948102D4CE37E088372C
:10270000930781F48091CA01B3D880911F01882377
:1027100081F0B092B301A092B2011092B101109277
:10272000B001C0CEE7E088399E0731F48091C8013E
:102730009FD888EE93E026C0F7E08F349F07B9F466
:102740008091AD018111AECE809120010E94810265
:1027500084E690E036D880E00E94810280911001EA
:1027600090E068EE73E01BD0845691090BC08D5346
:10277000974051F480E092D881E090D880E08ED8E4
:1027800080ED97E01ED88ECE86B78F7986BF86B74C
:10279000806186BF889586B78F7E86BF83CE0024F2
:1027A000552704C0080E591F880F991F009729F05C
:1027B00076956795B8F37105B9F7802D952F089533
:1027C000EE27FF27AA27BB2708C0A20FB31FE41FCD
:1027D000F51F220F331F441F551F96958795779538
:1027E000679598F37040A9F7009799F7BD01CF015D
:1027F0000895991B79E004C0991F961708F0961B5D
:10280000881F7A95C9F780950895AA1BBB1B51E1D3
:1028100007C0AA1FBB1FA617B70710F0A61BB70B50
:10282000881F991F5A95A9F780959095BC01CD01F5
:10283000089597FB072E16F4009406D077FD08D074
:10284000E4DF07FC05D03EF4909581959F4F0895F5
:10285000709561957F4F0895A1E21A2EAA1BBB1BAC
:10286000FD010DC0AA1FBB1FEE1FFF1FA217B3075C
:10287000E407F50720F0A21BB30BE40BF50B661F72
:10288000771F881F991F1A9469F760957095809536
:1028900090959B01AC01BD01CF010895E199FECF58
:1028A0001FBA8EBBE09A99278DB30895262FE19920
:1028B000FECF1FBA8EBBE09A81500DB2021639F0DE
:1028C0001CBA2DBB0FB6F894E29AE19A0FBE089598
:0428D000F894FFCFAA
:1028D400080E1801010101000496294304781E988A
:1028E4000237180107058282820A0A0A820A010154
:1028F4004615802D07020504031901160113010270
:1029040001000000000000000100000000000000C1
:1029140000010000210123022503270429052C06B8
:02292400FF06AC
:00000001FF
